{
  "contractName": "SimpleStorage",
  "abi": [
    {
      "anonymous": false,
      "inputs": [
        {
          "indexed": false,
          "internalType": "bool",
          "name": "esito",
          "type": "bool"
        }
      ],
      "name": "CreazionePostazione",
      "type": "event"
    },
    {
      "anonymous": false,
      "inputs": [
        {
          "indexed": false,
          "internalType": "bool",
          "name": "esito",
          "type": "bool"
        }
      ],
      "name": "EliminazionePostazione",
      "type": "event"
    },
    {
      "constant": true,
      "inputs": [
        {
          "internalType": "string",
          "name": "",
          "type": "string"
        }
      ],
      "name": "postazioni",
      "outputs": [
        {
          "internalType": "uint256",
          "name": "x",
          "type": "uint256"
        },
        {
          "internalType": "uint256",
          "name": "y",
          "type": "uint256"
        },
        {
          "internalType": "bool",
          "name": "isExist",
          "type": "bool"
        }
      ],
      "payable": false,
      "stateMutability": "view",
      "type": "function"
    },
    {
      "constant": false,
      "inputs": [
        {
          "internalType": "uint256",
          "name": "_dim1",
          "type": "uint256"
        },
        {
          "internalType": "uint256",
          "name": "_dim2",
          "type": "uint256"
        }
      ],
      "name": "_setDimensioniStanza",
      "outputs": [],
      "payable": false,
      "stateMutability": "nonpayable",
      "type": "function"
    },
    {
      "constant": false,
      "inputs": [
        {
          "internalType": "string",
          "name": "_id",
          "type": "string"
        },
        {
          "internalType": "uint256",
          "name": "_x",
          "type": "uint256"
        },
        {
          "internalType": "uint256",
          "name": "_y",
          "type": "uint256"
        }
      ],
      "name": "_creaPostazione",
      "outputs": [],
      "payable": false,
      "stateMutability": "nonpayable",
      "type": "function"
    },
    {
      "constant": false,
      "inputs": [
        {
          "internalType": "string",
          "name": "_id",
          "type": "string"
        }
      ],
      "name": "_eliminaPostazione",
      "outputs": [],
      "payable": false,
      "stateMutability": "nonpayable",
      "type": "function"
    }
  ],
  "bytecode": "0x608060405234801561001057600080fd5b50610663806100206000396000f3fe608060405234801561001057600080fd5b5060043610610069576000357c010000000000000000000000000000000000000000000000000000000090048063223d03741461006e578063696078af1461014f57806385d4427f1461021e578063ea2d26b814610256575b600080fd5b6101276004803603602081101561008457600080fd5b81019080803590602001906401000000008111156100a157600080fd5b8201836020820111156100b357600080fd5b803590602001918460018302840111640100000000831117156100d557600080fd5b91908080601f016020809104026020016040519081016040528093929190818152602001838380828437600081840152601f19601f820116905080830192505050505050509192919290505050610311565b6040518084815260200183815260200182151515158152602001935050505060405180910390f35b61021c6004803603606081101561016557600080fd5b810190808035906020019064010000000081111561018257600080fd5b82018360208201111561019457600080fd5b803590602001918460018302840111640100000000831117156101b657600080fd5b91908080601f016020809104026020016040519081016040528093929190818152602001838380828437600081840152601f19601f820116905080830192505050505050509192919290803590602001909291908035906020019092919050505061035e565b005b6102546004803603604081101561023457600080fd5b8101908080359060200190929190803590602001909291905050506104d5565b005b61030f6004803603602081101561026c57600080fd5b810190808035906020019064010000000081111561028957600080fd5b82018360208201111561029b57600080fd5b803590602001918460018302840111640100000000831117156102bd57600080fd5b91908080601f016020809104026020016040519081016040528093929190818152602001838380828437600081840152601f19601f8201169050808301925050505050505091929192905050506104e7565b005b6002818051602081018201805184825260208301602085012081835280955050505050506000915090508060000154908060010154908060020160009054906101000a900460ff16905083565b6040518060600160405280838152602001828152602001600115158152506002846040518082805190602001908083835b602083106103b2578051825260208201915060208101905060208303925061038f565b6001836020036101000a0380198251168184511680821785525050505050509050019150509081526020016040518091039020600082015181600001556020820151816001015560408201518160020160006101000a81548160ff0219169083151502179055509050507fffffce886a3586f94d48fe438a07860e3319e5b16b8528ce2934328e6ef8f8eb6002846040518082805190602001908083835b602083106104735780518252602082019150602081019050602083039250610450565b6001836020036101000a038019825116818451168082178552505050505050905001915050908152602001604051809103902060020160009054906101000a900460ff16604051808215151515815260200191505060405180910390a1505050565b81600081905550806001819055505050565b6002816040518082805190602001908083835b6020831061051d57805182526020820191506020810190506020830392506104fa565b6001836020036101000a038019825116818451168082178552505050505050905001915050908152602001604051809103902060008082016000905560018201600090556002820160006101000a81549060ff021916905550507fffffce886a3586f94d48fe438a07860e3319e5b16b8528ce2934328e6ef8f8eb6002826040518082805190602001908083835b602083106105ce57805182526020820191506020810190506020830392506105ab565b6001836020036101000a038019825116818451168082178552505050505050905001915050908152602001604051809103902060020160009054906101000a900460ff16604051808215151515815260200191505060405180910390a15056fea265627a7a72315820c81993afa9df1d009c24e0078d0639169f332e025b15563890b31e65423d9d9664736f6c63430005100032",
  "source": "// SPDX-License-Identifier: GPL-3.0\r\n\r\npragma solidity ^0.5.16;\r\n\r\ncontract SimpleStorage {\r\n    \r\n    event CreazionePostazione(bool esito);\r\n    event EliminazionePostazione(bool esito);\r\n    \r\n struct Postazione {\r\n     uint x;\r\n     uint y;\r\n     bool isExist;\r\n }\r\n \r\n //dati della stanza\r\n uint dim1;\r\n uint dim2;\r\n mapping (string => Postazione) public postazioni; \r\n \r\n // marcare mapping PUBLIC rende disponibile il getter aGGRATIS\r\n \r\n //serve una lista degli id delle postazioni per eliminare tutte le postazioni della stanza\r\n //altrimenti si crea garbage\r\n \r\n function _setDimensioniStanza(uint _dim1, uint _dim2) public {\r\n     dim1=_dim1;\r\n     dim2=_dim2;\r\n }\r\n \r\n function _creaPostazione (string memory _id, uint _x, uint _y) public {\r\n     postazioni[_id]=Postazione(_x, _y, true);\r\n     emit CreazionePostazione(postazioni[_id].isExist);\r\n }\r\n \r\n function _eliminaPostazione (string memory _id) public {\r\n     delete postazioni[_id];\r\n     emit CreazionePostazione(postazioni[_id].isExist);\r\n }\r\n    \r\n}\r\n    ",
  "sourcePath": "/mnt/c/Users/ivanp/Desktop/uni/swe/git/swe-poc/Ethereum/StanzaPoc/private/truffle/contracts/PostazioneMapping.sol",
  "compiler": {
    "name": "solc",
    "version": "0.5.16+commit.9c3226ce.Emscripten.clang"
  },
  "schemaVersion": "3.3.4",
  "updatedAt": "2021-02-27T16:59:50.860Z",
  "networkType": "ethereum",
  "devdoc": {
    "methods": {}
  },
  "userdoc": {
    "methods": {}
  }
}