{
  "contractName": "SimpleStorage",
  "abi": [
    {
      "constant": true,
      "inputs": [
        {
          "internalType": "string",
          "name": "",
          "type": "string"
        }
      ],
      "name": "postazioni",
      "outputs": [
        {
          "internalType": "uint256",
          "name": "x",
          "type": "uint256"
        },
        {
          "internalType": "uint256",
          "name": "y",
          "type": "uint256"
        },
        {
          "internalType": "string",
          "name": "stato",
          "type": "string"
        }
      ],
      "payable": false,
      "stateMutability": "view",
      "type": "function"
    },
    {
      "constant": false,
      "inputs": [
        {
          "internalType": "uint256",
          "name": "_dim1",
          "type": "uint256"
        },
        {
          "internalType": "uint256",
          "name": "_dim2",
          "type": "uint256"
        }
      ],
      "name": "_setDimensioniStanza",
      "outputs": [],
      "payable": false,
      "stateMutability": "nonpayable",
      "type": "function"
    },
    {
      "constant": false,
      "inputs": [
        {
          "internalType": "string",
          "name": "_id",
          "type": "string"
        },
        {
          "internalType": "uint256",
          "name": "_x",
          "type": "uint256"
        },
        {
          "internalType": "uint256",
          "name": "_y",
          "type": "uint256"
        },
        {
          "internalType": "string",
          "name": "_stato",
          "type": "string"
        }
      ],
      "name": "_creaPostazione",
      "outputs": [],
      "payable": false,
      "stateMutability": "nonpayable",
      "type": "function"
    },
    {
      "constant": false,
      "inputs": [
        {
          "internalType": "string",
          "name": "_id",
          "type": "string"
        }
      ],
      "name": "_eliminaPostazione",
      "outputs": [],
      "payable": false,
      "stateMutability": "nonpayable",
      "type": "function"
    }
  ],
  "bytecode": "0x608060405234801561001057600080fd5b50610762806100206000396000f3fe608060405234801561001057600080fd5b5060043610610069576000357c010000000000000000000000000000000000000000000000000000000090048063138515541461006e578063223d0374146101d457806385d4427f14610316578063ea2d26b81461034e575b600080fd5b6101d26004803603608081101561008457600080fd5b81019080803590602001906401000000008111156100a157600080fd5b8201836020820111156100b357600080fd5b803590602001918460018302840111640100000000831117156100d557600080fd5b91908080601f016020809104026020016040519081016040528093929190818152602001838380828437600081840152601f19601f82011690508083019250505050505050919291929080359060200190929190803590602001909291908035906020019064010000000081111561014c57600080fd5b82018360208201111561015e57600080fd5b8035906020019184600183028401116401000000008311171561018057600080fd5b91908080601f016020809104026020016040519081016040528093929190818152602001838380828437600081840152601f19601f820116905080830192505050505050509192919290505050610409565b005b61028d600480360360208110156101ea57600080fd5b810190808035906020019064010000000081111561020757600080fd5b82018360208201111561021957600080fd5b8035906020019184600183028401116401000000008311171561023b57600080fd5b91908080601f016020809104026020016040519081016040528093929190818152602001838380828437600081840152601f19601f8201169050808301925050505050505091929192905050506104c7565b6040518084815260200183815260200180602001828103825283818151815260200191508051906020019080838360005b838110156102d95780820151818401526020810190506102be565b50505050905090810190601f1680156103065780820380516001836020036101000a031916815260200191505b5094505050505060405180910390f35b61034c6004803603604081101561032c57600080fd5b81019080803590602001909291908035906020019092919050505061059f565b005b6104076004803603602081101561036457600080fd5b810190808035906020019064010000000081111561038157600080fd5b82018360208201111561039357600080fd5b803590602001918460018302840111640100000000831117156103b557600080fd5b91908080601f016020809104026020016040519081016040528093929190818152602001838380828437600081840152601f19601f8201169050808301925050505050505091929192905050506105b1565b005b6040518060600160405280848152602001838152602001828152506002856040518082805190602001908083835b6020831061045a5780518252602082019150602081019050602083039250610437565b6001836020036101000a0380198251168184511680821785525050505050509050019150509081526020016040518091039020600082015181600001556020820151816001015560408201518160020190805190602001906104bd929190610640565b5090505050505050565b600281805160208101820180518482526020830160208501208183528095505050505050600091509050806000015490806001015490806002018054600181600116156101000203166002900480601f0160208091040260200160405190810160405280929190818152602001828054600181600116156101000203166002900480156105955780601f1061056a57610100808354040283529160200191610595565b820191906000526020600020905b81548152906001019060200180831161057857829003601f168201915b5050505050905083565b81600081905550806001819055505050565b6002816040518082805190602001908083835b602083106105e757805182526020820191506020810190506020830392506105c4565b6001836020036101000a0380198251168184511680821785525050505050509050019150509081526020016040518091039020600080820160009055600182016000905560028201600061063b91906106c0565b505050565b828054600181600116156101000203166002900490600052602060002090601f016020900481019282601f1061068157805160ff19168380011785556106af565b828001600101855582156106af579182015b828111156106ae578251825591602001919060010190610693565b5b5090506106bc9190610708565b5090565b50805460018160011615610100020316600290046000825580601f106106e65750610705565b601f0160209004906000526020600020908101906107049190610708565b5b50565b61072a91905b8082111561072657600081600090555060010161070e565b5090565b9056fea265627a7a723158208d023c40d4f49388047e2404114b46b094d396cf00a7a575301b691282cd4e5d64736f6c63430005100032",
  "source": "// SPDX-License-Identifier: GPL-3.0\n\npragma solidity ^0.5.16;\n\ncontract SimpleStorage {\n    \n struct Postazione {\n     uint x;\n     uint y;\n     string stato;\n }\n \n //dati della stanza\n uint dim1;\n uint dim2;\n mapping (string => Postazione) public postazioni; \n \n// marcare mapping PUBLIC => getter implicito\n// se id non presente nel mapping, getter restituisce: (0,0,\"\")\n \n function _setDimensioniStanza(uint _dim1, uint _dim2) public {\n     dim1=_dim1;\n     dim2=_dim2;\n }\n \n function _creaPostazione (string memory _id, uint _x, uint _y, string memory _stato) public {\n     postazioni[_id]=Postazione(_x, _y, _stato);\n }\n \n function _eliminaPostazione (string memory _id) public {\n     delete postazioni[_id];\n }\n    \n}\n    \n",
  "sourcePath": "/home/toldo/Desktop/UniPD/SWE/POC/swe-poc/Ethereum/StanzaPoc/private/truffle/contracts/PostazioneMapping.sol",
  "compiler": {
    "name": "solc",
    "version": "0.5.16+commit.9c3226ce.Emscripten.clang"
  },
  "schemaVersion": "3.3.4",
  "updatedAt": "2021-03-01T16:48:21.445Z",
  "networkType": "ethereum",
  "devdoc": {
    "methods": {}
  },
  "userdoc": {
    "methods": {}
  }
}